{
  "abi": [
    {
      "inputs": [],
      "stateMutability": "nonpayable",
      "type": "constructor"
    },
    {
      "anonymous": false,
      "inputs": [
        {
          "indexed": false,
          "internalType": "uint256",
          "name": "id",
          "type": "uint256"
        },
        {
          "indexed": false,
          "internalType": "address",
          "name": "targetEntity",
          "type": "address"
        },
        {
          "indexed": false,
          "internalType": "uint8",
          "name": "value",
          "type": "uint8"
        },
        {
          "indexed": false,
          "internalType": "string",
          "name": "text",
          "type": "string"
        }
      ],
      "name": "ReviewReveivedEvent",
      "type": "event"
    },
    {
      "inputs": [
        {
          "internalType": "uint8[]",
          "name": "_assertedScores",
          "type": "uint8[]"
        },
        {
          "internalType": "bytes32[]",
          "name": "_assertedHashes",
          "type": "bytes32[]"
        },
        {
          "internalType": "address",
          "name": "_targetEntity",
          "type": "address"
        }
      ],
      "name": "checkEntityReviews",
      "outputs": [
        {
          "internalType": "bool",
          "name": "",
          "type": "bool"
        }
      ],
      "stateMutability": "view",
      "type": "function"
    },
    {
      "inputs": [
        {
          "internalType": "address",
          "name": "_targetEntity",
          "type": "address"
        }
      ],
      "name": "getAverageScore",
      "outputs": [
        {
          "internalType": "uint256",
          "name": "",
          "type": "uint256"
        },
        {
          "internalType": "uint256",
          "name": "",
          "type": "uint256"
        }
      ],
      "stateMutability": "view",
      "type": "function"
    },
    {
      "inputs": [
        {
          "internalType": "address",
          "name": "_targetEntity",
          "type": "address"
        }
      ],
      "name": "getReputationCount",
      "outputs": [
        {
          "internalType": "uint256",
          "name": "",
          "type": "uint256"
        }
      ],
      "stateMutability": "view",
      "type": "function"
    },
    {
      "inputs": [],
      "name": "owner",
      "outputs": [
        {
          "internalType": "address",
          "name": "",
          "type": "address"
        }
      ],
      "stateMutability": "view",
      "type": "function"
    },
    {
      "inputs": [
        {
          "internalType": "address",
          "name": "_targetEntity",
          "type": "address"
        }
      ],
      "name": "retrieveEntityReviews",
      "outputs": [
        {
          "components": [
            {
              "internalType": "uint8",
              "name": "value",
              "type": "uint8"
            },
            {
              "internalType": "bytes32",
              "name": "hash",
              "type": "bytes32"
            },
            {
              "internalType": "uint32",
              "name": "id",
              "type": "uint32"
            }
          ],
          "internalType": "struct Reputation.BlockchainReview[]",
          "name": "",
          "type": "tuple[]"
        }
      ],
      "stateMutability": "view",
      "type": "function"
    },
    {
      "inputs": [
        {
          "internalType": "address",
          "name": "_targetEntity",
          "type": "address"
        },
        {
          "internalType": "uint8",
          "name": "_value",
          "type": "uint8"
        },
        {
          "internalType": "string",
          "name": "_text",
          "type": "string"
        }
      ],
      "name": "storeReview",
      "outputs": [],
      "stateMutability": "nonpayable",
      "type": "function"
    }
  ],
  "bytecode": "60806040526004805463ffffffff1916905534801561001d57600080fd5b50600080546001600160a01b03191633179055610bd78061003f6000396000f3fe608060405234801561001057600080fd5b50600436106100625760003560e01c80632d33378f146100675780637abf5cdf146100a35780637c06198a146100b85780638da5cb5b146100d8578063d06509fd14610103578063e55d31441461012b575b600080fd5b61009061007536600461072e565b6001600160a01b031660009081526001602052604090205490565b6040519081526020015b60405180910390f35b6100b66100b13660046107a1565b61014e565b005b6100cb6100c636600461072e565b610494565b60405161009a9190610857565b6000546100eb906001600160a01b031681565b6040516001600160a01b03909116815260200161009a565b61011661011136600461072e565b61052c565b6040805192835260208301919091520161009a565b61013e610139366004610948565b6105fb565b604051901515815260200161009a565b60018260ff1610158015610166575060058260ff1611155b6101c35760405162461bcd60e51b815260206004820152602360248201527f5468652076616c75652073686f756c64206265206265747765656e203120616e60448201526264203560e81b60648201526084015b60405180910390fd5b336001600160a01b0384160361022b5760405162461bcd60e51b815260206004820152602760248201527f596f752063616e6e6f7420696e73657274207265766965777320666f7220796f604482015266757273656c662160c81b60648201526084016101ba565b3360009081526003602090815260408083206001600160a01b038716845290915290205460ff16156102b55760405162461bcd60e51b815260206004820152602d60248201527f596f7520616c726561647920696e73657274656420612072657669657720666f60448201526c722074686520656e746974792160981b60648201526084016101ba565b60006002826040516020016102ca9190610a3c565b60408051601f19818403018152908290526102e491610a3c565b602060405180830381855afa158015610301573d6000803e3d6000fd5b5050506040513d601f19601f820116820180604052508101906103249190610a58565b6001600160a01b0385166000908152600160208181526040808420815160608101835260ff8a811682528185018881526004805463ffffffff9081168588019081528654808b018855968b529790992093516003909502909301805460ff19169490921693909317815591519482019490945591516002909201805463ffffffff191692851692909217909155905490519293507f8f2553494b0c96b0550a24af9e6e76bf95d141ac442b6ad1d87088592c0a80a4926103ee929190911690879087908790610a71565b60405180910390a16001600160a01b0384166000908152600260205260408120805460ff86169290610421908490610ae0565b90915550503360009081526003602090815260408083206001600160a01b03881684529091528120805460ff19166001908117909155600480549192909161047090849063ffffffff16610af9565b92506101000a81548163ffffffff021916908363ffffffff16021790555050505050565b6001600160a01b0381166000908152600160209081526040808320805482518185028101850190935280835260609492939192909184015b828210156105215760008481526020908190206040805160608101825260038602909201805460ff1683526001808201548486015260029091015463ffffffff169183019190915290835290920191016104cc565b505050509050919050565b6000806000610550846001600160a01b031660009081526001602052604090205490565b6001600160a01b0385166000908152600260205260409020546105739190610b33565b90506000610596856001600160a01b031660009081526001602052604090205490565b6001600160a01b0386166000908152600260205260409020546105b99190610b47565b9050816105db866001600160a01b031660009081526001602052604090205490565b6105e683600a610b5b565b6105f09190610b33565b935093505050915091565b6000805b6001600160a01b038316600090815260016020526040902054811015610705576001600160a01b038316600090815260016020526040902080548290811061064957610649610b72565b90600052602060002090600302016001015484828151811061066d5761066d610b72565b60200260200101511461068457600091505061070b565b6001600160a01b03831660009081526001602052604090208054829081106106ae576106ae610b72565b6000918252602090912060039091020154855160ff909116908690839081106106d9576106d9610b72565b602002602001015160ff16146106f357600091505061070b565b806106fd81610b88565b9150506105ff565b50600190505b9392505050565b80356001600160a01b038116811461072957600080fd5b919050565b60006020828403121561074057600080fd5b61070b82610712565b803560ff8116811461072957600080fd5b634e487b7160e01b600052604160045260246000fd5b604051601f8201601f1916810167ffffffffffffffff811182821017156107995761079961075a565b604052919050565b6000806000606084860312156107b657600080fd5b6107bf84610712565b925060206107ce818601610749565b9250604085013567ffffffffffffffff808211156107eb57600080fd5b818701915087601f8301126107ff57600080fd5b8135818111156108115761081161075a565b610823601f8201601f19168501610770565b9150808252888482850101111561083957600080fd5b80848401858401376000848284010152508093505050509250925092565b602080825282518282018190526000919060409081850190868401855b828110156108ac578151805160ff168552868101518786015285015163ffffffff168585015260609093019290850190600101610874565b5091979650505050505050565b600067ffffffffffffffff8211156108d3576108d361075a565b5060051b60200190565b600082601f8301126108ee57600080fd5b813560206109036108fe836108b9565b610770565b82815260059290921b8401810191818101908684111561092257600080fd5b8286015b8481101561093d5780358352918301918301610926565b509695505050505050565b60008060006060848603121561095d57600080fd5b833567ffffffffffffffff8082111561097557600080fd5b818601915086601f83011261098957600080fd5b813560206109996108fe836108b9565b82815260059290921b8401810191818101908a8411156109b857600080fd5b948201945b838610156109dd576109ce86610749565b825294820194908201906109bd565b975050870135925050808211156109f357600080fd5b50610a00868287016108dd565b925050610a0f60408501610712565b90509250925092565b60005b83811015610a33578181015183820152602001610a1b565b50506000910152565b60008251610a4e818460208701610a18565b9190910192915050565b600060208284031215610a6a57600080fd5b5051919050565b63ffffffff8516815260018060a01b038416602082015260ff831660408201526080606082015260008251806080840152610ab38160a0850160208701610a18565b601f01601f19169190910160a00195945050505050565b634e487b7160e01b600052601160045260246000fd5b80820180821115610af357610af3610aca565b92915050565b63ffffffff818116838216019080821115610b1657610b16610aca565b5092915050565b634e487b7160e01b600052601260045260246000fd5b600082610b4257610b42610b1d565b500490565b600082610b5657610b56610b1d565b500690565b8082028115828204841417610af357610af3610aca565b634e487b7160e01b600052603260045260246000fd5b600060018201610b9a57610b9a610aca565b506001019056fea26469706673582212209930cc1b979ee33a117395dcc932ac31f63d64537fab7aee285f6923927f41e264736f6c63430008110033",
  "bytecodeSha1": "b727ea35364f1afe1fad0415b3c3aa320419aa78",
  "compiler": {
    "evm_version": "istanbul",
    "optimizer": {
      "enabled": true,
      "runs": 200
    },
    "version": "0.8.17+commit.8df45f5f"
  },
  "contractName": "Reputation",
  "language": "Solidity",
  "natspec": {
    "kind": "dev",
    "methods": {},
    "version": 1
  },
  "opcodes": "PUSH1 0x80 PUSH1 0x40 MSTORE CALLVALUE DUP1 ISZERO PUSH2 0x10 JUMPI PUSH1 0x0 DUP1 REVERT JUMPDEST POP PUSH1 0x4 CALLDATASIZE LT PUSH2 0x62 JUMPI PUSH1 0x0 CALLDATALOAD PUSH1 0xE0 SHR DUP1 PUSH4 0x2D33378F EQ PUSH2 0x67 JUMPI DUP1 PUSH4 0x7ABF5CDF EQ PUSH2 0xA3 JUMPI DUP1 PUSH4 0x7C06198A EQ PUSH2 0xB8 JUMPI DUP1 PUSH4 0x8DA5CB5B EQ PUSH2 0xD8 JUMPI DUP1 PUSH4 0xD06509FD EQ PUSH2 0x103 JUMPI DUP1 PUSH4 0xE55D3144 EQ PUSH2 0x12B JUMPI JUMPDEST PUSH1 0x0 DUP1 REVERT JUMPDEST PUSH2 0x90 PUSH2 0x75 CALLDATASIZE PUSH1 0x4 PUSH2 0x72E JUMP JUMPDEST PUSH1 0x1 PUSH1 0x1 PUSH1 0xA0 SHL SUB AND PUSH1 0x0 SWAP1 DUP2 MSTORE PUSH1 0x1 PUSH1 0x20 MSTORE PUSH1 0x40 SWAP1 KECCAK256 SLOAD SWAP1 JUMP JUMPDEST PUSH1 0x40 MLOAD SWAP1 DUP2 MSTORE PUSH1 0x20 ADD JUMPDEST PUSH1 0x40 MLOAD DUP1 SWAP2 SUB SWAP1 RETURN JUMPDEST PUSH2 0xB6 PUSH2 0xB1 CALLDATASIZE PUSH1 0x4 PUSH2 0x7A1 JUMP JUMPDEST PUSH2 0x14E JUMP JUMPDEST STOP JUMPDEST PUSH2 0xCB PUSH2 0xC6 CALLDATASIZE PUSH1 0x4 PUSH2 0x72E JUMP JUMPDEST PUSH2 0x494 JUMP JUMPDEST PUSH1 0x40 MLOAD PUSH2 0x9A SWAP2 SWAP1 PUSH2 0x857 JUMP JUMPDEST PUSH1 0x0 SLOAD PUSH2 0xEB SWAP1 PUSH1 0x1 PUSH1 0x1 PUSH1 0xA0 SHL SUB AND DUP2 JUMP JUMPDEST PUSH1 0x40 MLOAD PUSH1 0x1 PUSH1 0x1 PUSH1 0xA0 SHL SUB SWAP1 SWAP2 AND DUP2 MSTORE PUSH1 0x20 ADD PUSH2 0x9A JUMP JUMPDEST PUSH2 0x116 PUSH2 0x111 CALLDATASIZE PUSH1 0x4 PUSH2 0x72E JUMP JUMPDEST PUSH2 0x52C JUMP JUMPDEST PUSH1 0x40 DUP1 MLOAD SWAP3 DUP4 MSTORE PUSH1 0x20 DUP4 ADD SWAP2 SWAP1 SWAP2 MSTORE ADD PUSH2 0x9A JUMP JUMPDEST PUSH2 0x13E PUSH2 0x139 CALLDATASIZE PUSH1 0x4 PUSH2 0x948 JUMP JUMPDEST PUSH2 0x5FB JUMP JUMPDEST PUSH1 0x40 MLOAD SWAP1 ISZERO ISZERO DUP2 MSTORE PUSH1 0x20 ADD PUSH2 0x9A JUMP JUMPDEST PUSH1 0x1 DUP3 PUSH1 0xFF AND LT ISZERO DUP1 ISZERO PUSH2 0x166 JUMPI POP PUSH1 0x5 DUP3 PUSH1 0xFF AND GT ISZERO JUMPDEST PUSH2 0x1C3 JUMPI PUSH1 0x40 MLOAD PUSH3 0x461BCD PUSH1 0xE5 SHL DUP2 MSTORE PUSH1 0x20 PUSH1 0x4 DUP3 ADD MSTORE PUSH1 0x23 PUSH1 0x24 DUP3 ADD MSTORE PUSH32 0x5468652076616C75652073686F756C64206265206265747765656E203120616E PUSH1 0x44 DUP3 ADD MSTORE PUSH3 0x642035 PUSH1 0xE8 SHL PUSH1 0x64 DUP3 ADD MSTORE PUSH1 0x84 ADD JUMPDEST PUSH1 0x40 MLOAD DUP1 SWAP2 SUB SWAP1 REVERT JUMPDEST CALLER PUSH1 0x1 PUSH1 0x1 PUSH1 0xA0 SHL SUB DUP5 AND SUB PUSH2 0x22B JUMPI PUSH1 0x40 MLOAD PUSH3 0x461BCD PUSH1 0xE5 SHL DUP2 MSTORE PUSH1 0x20 PUSH1 0x4 DUP3 ADD MSTORE PUSH1 0x27 PUSH1 0x24 DUP3 ADD MSTORE PUSH32 0x596F752063616E6E6F7420696E73657274207265766965777320666F7220796F PUSH1 0x44 DUP3 ADD MSTORE PUSH7 0x757273656C6621 PUSH1 0xC8 SHL PUSH1 0x64 DUP3 ADD MSTORE PUSH1 0x84 ADD PUSH2 0x1BA JUMP JUMPDEST CALLER PUSH1 0x0 SWAP1 DUP2 MSTORE PUSH1 0x3 PUSH1 0x20 SWAP1 DUP2 MSTORE PUSH1 0x40 DUP1 DUP4 KECCAK256 PUSH1 0x1 PUSH1 0x1 PUSH1 0xA0 SHL SUB DUP8 AND DUP5 MSTORE SWAP1 SWAP2 MSTORE SWAP1 KECCAK256 SLOAD PUSH1 0xFF AND ISZERO PUSH2 0x2B5 JUMPI PUSH1 0x40 MLOAD PUSH3 0x461BCD PUSH1 0xE5 SHL DUP2 MSTORE PUSH1 0x20 PUSH1 0x4 DUP3 ADD MSTORE PUSH1 0x2D PUSH1 0x24 DUP3 ADD MSTORE PUSH32 0x596F7520616C726561647920696E73657274656420612072657669657720666F PUSH1 0x44 DUP3 ADD MSTORE PUSH13 0x722074686520656E7469747921 PUSH1 0x98 SHL PUSH1 0x64 DUP3 ADD MSTORE PUSH1 0x84 ADD PUSH2 0x1BA JUMP JUMPDEST PUSH1 0x0 PUSH1 0x2 DUP3 PUSH1 0x40 MLOAD PUSH1 0x20 ADD PUSH2 0x2CA SWAP2 SWAP1 PUSH2 0xA3C JUMP JUMPDEST PUSH1 0x40 DUP1 MLOAD PUSH1 0x1F NOT DUP2 DUP5 SUB ADD DUP2 MSTORE SWAP1 DUP3 SWAP1 MSTORE PUSH2 0x2E4 SWAP2 PUSH2 0xA3C JUMP JUMPDEST PUSH1 0x20 PUSH1 0x40 MLOAD DUP1 DUP4 SUB DUP2 DUP6 GAS STATICCALL ISZERO DUP1 ISZERO PUSH2 0x301 JUMPI RETURNDATASIZE PUSH1 0x0 DUP1 RETURNDATACOPY RETURNDATASIZE PUSH1 0x0 REVERT JUMPDEST POP POP POP PUSH1 0x40 MLOAD RETURNDATASIZE PUSH1 0x1F NOT PUSH1 0x1F DUP3 ADD AND DUP3 ADD DUP1 PUSH1 0x40 MSTORE POP DUP2 ADD SWAP1 PUSH2 0x324 SWAP2 SWAP1 PUSH2 0xA58 JUMP JUMPDEST PUSH1 0x1 PUSH1 0x1 PUSH1 0xA0 SHL SUB DUP6 AND PUSH1 0x0 SWAP1 DUP2 MSTORE PUSH1 0x1 PUSH1 0x20 DUP2 DUP2 MSTORE PUSH1 0x40 DUP1 DUP5 KECCAK256 DUP2 MLOAD PUSH1 0x60 DUP2 ADD DUP4 MSTORE PUSH1 0xFF DUP11 DUP2 AND DUP3 MSTORE DUP2 DUP6 ADD DUP9 DUP2 MSTORE PUSH1 0x4 DUP1 SLOAD PUSH4 0xFFFFFFFF SWAP1 DUP2 AND DUP6 DUP9 ADD SWAP1 DUP2 MSTORE DUP7 SLOAD DUP1 DUP12 ADD DUP9 SSTORE SWAP7 DUP12 MSTORE SWAP8 SWAP1 SWAP10 KECCAK256 SWAP4 MLOAD PUSH1 0x3 SWAP1 SWAP6 MUL SWAP1 SWAP4 ADD DUP1 SLOAD PUSH1 0xFF NOT AND SWAP5 SWAP1 SWAP3 AND SWAP4 SWAP1 SWAP4 OR DUP2 SSTORE SWAP2 MLOAD SWAP5 DUP3 ADD SWAP5 SWAP1 SWAP5 SSTORE SWAP2 MLOAD PUSH1 0x2 SWAP1 SWAP3 ADD DUP1 SLOAD PUSH4 0xFFFFFFFF NOT AND SWAP3 DUP6 AND SWAP3 SWAP1 SWAP3 OR SWAP1 SWAP2 SSTORE SWAP1 SLOAD SWAP1 MLOAD SWAP3 SWAP4 POP PUSH32 0x8F2553494B0C96B0550A24AF9E6E76BF95D141AC442B6AD1D87088592C0A80A4 SWAP3 PUSH2 0x3EE SWAP3 SWAP2 SWAP1 SWAP2 AND SWAP1 DUP8 SWAP1 DUP8 SWAP1 DUP8 SWAP1 PUSH2 0xA71 JUMP JUMPDEST PUSH1 0x40 MLOAD DUP1 SWAP2 SUB SWAP1 LOG1 PUSH1 0x1 PUSH1 0x1 PUSH1 0xA0 SHL SUB DUP5 AND PUSH1 0x0 SWAP1 DUP2 MSTORE PUSH1 0x2 PUSH1 0x20 MSTORE PUSH1 0x40 DUP2 KECCAK256 DUP1 SLOAD PUSH1 0xFF DUP7 AND SWAP3 SWAP1 PUSH2 0x421 SWAP1 DUP5 SWAP1 PUSH2 0xAE0 JUMP JUMPDEST SWAP1 SWAP2 SSTORE POP POP CALLER PUSH1 0x0 SWAP1 DUP2 MSTORE PUSH1 0x3 PUSH1 0x20 SWAP1 DUP2 MSTORE PUSH1 0x40 DUP1 DUP4 KECCAK256 PUSH1 0x1 PUSH1 0x1 PUSH1 0xA0 SHL SUB DUP9 AND DUP5 MSTORE SWAP1 SWAP2 MSTORE DUP2 KECCAK256 DUP1 SLOAD PUSH1 0xFF NOT AND PUSH1 0x1 SWAP1 DUP2 OR SWAP1 SWAP2 SSTORE PUSH1 0x4 DUP1 SLOAD SWAP2 SWAP3 SWAP1 SWAP2 PUSH2 0x470 SWAP1 DUP5 SWAP1 PUSH4 0xFFFFFFFF AND PUSH2 0xAF9 JUMP JUMPDEST SWAP3 POP PUSH2 0x100 EXP DUP2 SLOAD DUP2 PUSH4 0xFFFFFFFF MUL NOT AND SWAP1 DUP4 PUSH4 0xFFFFFFFF AND MUL OR SWAP1 SSTORE POP POP POP POP POP JUMP JUMPDEST PUSH1 0x1 PUSH1 0x1 PUSH1 0xA0 SHL SUB DUP2 AND PUSH1 0x0 SWAP1 DUP2 MSTORE PUSH1 0x1 PUSH1 0x20 SWAP1 DUP2 MSTORE PUSH1 0x40 DUP1 DUP4 KECCAK256 DUP1 SLOAD DUP3 MLOAD DUP2 DUP6 MUL DUP2 ADD DUP6 ADD SWAP1 SWAP4 MSTORE DUP1 DUP4 MSTORE PUSH1 0x60 SWAP5 SWAP3 SWAP4 SWAP2 SWAP3 SWAP1 SWAP2 DUP5 ADD JUMPDEST DUP3 DUP3 LT ISZERO PUSH2 0x521 JUMPI PUSH1 0x0 DUP5 DUP2 MSTORE PUSH1 0x20 SWAP1 DUP2 SWAP1 KECCAK256 PUSH1 0x40 DUP1 MLOAD PUSH1 0x60 DUP2 ADD DUP3 MSTORE PUSH1 0x3 DUP7 MUL SWAP1 SWAP3 ADD DUP1 SLOAD PUSH1 0xFF AND DUP4 MSTORE PUSH1 0x1 DUP1 DUP3 ADD SLOAD DUP5 DUP7 ADD MSTORE PUSH1 0x2 SWAP1 SWAP2 ADD SLOAD PUSH4 0xFFFFFFFF AND SWAP2 DUP4 ADD SWAP2 SWAP1 SWAP2 MSTORE SWAP1 DUP4 MSTORE SWAP1 SWAP3 ADD SWAP2 ADD PUSH2 0x4CC JUMP JUMPDEST POP POP POP POP SWAP1 POP SWAP2 SWAP1 POP JUMP JUMPDEST PUSH1 0x0 DUP1 PUSH1 0x0 PUSH2 0x550 DUP5 PUSH1 0x1 PUSH1 0x1 PUSH1 0xA0 SHL SUB AND PUSH1 0x0 SWAP1 DUP2 MSTORE PUSH1 0x1 PUSH1 0x20 MSTORE PUSH1 0x40 SWAP1 KECCAK256 SLOAD SWAP1 JUMP JUMPDEST PUSH1 0x1 PUSH1 0x1 PUSH1 0xA0 SHL SUB DUP6 AND PUSH1 0x0 SWAP1 DUP2 MSTORE PUSH1 0x2 PUSH1 0x20 MSTORE PUSH1 0x40 SWAP1 KECCAK256 SLOAD PUSH2 0x573 SWAP2 SWAP1 PUSH2 0xB33 JUMP JUMPDEST SWAP1 POP PUSH1 0x0 PUSH2 0x596 DUP6 PUSH1 0x1 PUSH1 0x1 PUSH1 0xA0 SHL SUB AND PUSH1 0x0 SWAP1 DUP2 MSTORE PUSH1 0x1 PUSH1 0x20 MSTORE PUSH1 0x40 SWAP1 KECCAK256 SLOAD SWAP1 JUMP JUMPDEST PUSH1 0x1 PUSH1 0x1 PUSH1 0xA0 SHL SUB DUP7 AND PUSH1 0x0 SWAP1 DUP2 MSTORE PUSH1 0x2 PUSH1 0x20 MSTORE PUSH1 0x40 SWAP1 KECCAK256 SLOAD PUSH2 0x5B9 SWAP2 SWAP1 PUSH2 0xB47 JUMP JUMPDEST SWAP1 POP DUP2 PUSH2 0x5DB DUP7 PUSH1 0x1 PUSH1 0x1 PUSH1 0xA0 SHL SUB AND PUSH1 0x0 SWAP1 DUP2 MSTORE PUSH1 0x1 PUSH1 0x20 MSTORE PUSH1 0x40 SWAP1 KECCAK256 SLOAD SWAP1 JUMP JUMPDEST PUSH2 0x5E6 DUP4 PUSH1 0xA PUSH2 0xB5B JUMP JUMPDEST PUSH2 0x5F0 SWAP2 SWAP1 PUSH2 0xB33 JUMP JUMPDEST SWAP4 POP SWAP4 POP POP POP SWAP2 POP SWAP2 JUMP JUMPDEST PUSH1 0x0 DUP1 JUMPDEST PUSH1 0x1 PUSH1 0x1 PUSH1 0xA0 SHL SUB DUP4 AND PUSH1 0x0 SWAP1 DUP2 MSTORE PUSH1 0x1 PUSH1 0x20 MSTORE PUSH1 0x40 SWAP1 KECCAK256 SLOAD DUP2 LT ISZERO PUSH2 0x705 JUMPI PUSH1 0x1 PUSH1 0x1 PUSH1 0xA0 SHL SUB DUP4 AND PUSH1 0x0 SWAP1 DUP2 MSTORE PUSH1 0x1 PUSH1 0x20 MSTORE PUSH1 0x40 SWAP1 KECCAK256 DUP1 SLOAD DUP3 SWAP1 DUP2 LT PUSH2 0x649 JUMPI PUSH2 0x649 PUSH2 0xB72 JUMP JUMPDEST SWAP1 PUSH1 0x0 MSTORE PUSH1 0x20 PUSH1 0x0 KECCAK256 SWAP1 PUSH1 0x3 MUL ADD PUSH1 0x1 ADD SLOAD DUP5 DUP3 DUP2 MLOAD DUP2 LT PUSH2 0x66D JUMPI PUSH2 0x66D PUSH2 0xB72 JUMP JUMPDEST PUSH1 0x20 MUL PUSH1 0x20 ADD ADD MLOAD EQ PUSH2 0x684 JUMPI PUSH1 0x0 SWAP2 POP POP PUSH2 0x70B JUMP JUMPDEST PUSH1 0x1 PUSH1 0x1 PUSH1 0xA0 SHL SUB DUP4 AND PUSH1 0x0 SWAP1 DUP2 MSTORE PUSH1 0x1 PUSH1 0x20 MSTORE PUSH1 0x40 SWAP1 KECCAK256 DUP1 SLOAD DUP3 SWAP1 DUP2 LT PUSH2 0x6AE JUMPI PUSH2 0x6AE PUSH2 0xB72 JUMP JUMPDEST PUSH1 0x0 SWAP2 DUP3 MSTORE PUSH1 0x20 SWAP1 SWAP2 KECCAK256 PUSH1 0x3 SWAP1 SWAP2 MUL ADD SLOAD DUP6 MLOAD PUSH1 0xFF SWAP1 SWAP2 AND SWAP1 DUP7 SWAP1 DUP4 SWAP1 DUP2 LT PUSH2 0x6D9 JUMPI PUSH2 0x6D9 PUSH2 0xB72 JUMP JUMPDEST PUSH1 0x20 MUL PUSH1 0x20 ADD ADD MLOAD PUSH1 0xFF AND EQ PUSH2 0x6F3 JUMPI PUSH1 0x0 SWAP2 POP POP PUSH2 0x70B JUMP JUMPDEST DUP1 PUSH2 0x6FD DUP2 PUSH2 0xB88 JUMP JUMPDEST SWAP2 POP POP PUSH2 0x5FF JUMP JUMPDEST POP PUSH1 0x1 SWAP1 POP JUMPDEST SWAP4 SWAP3 POP POP POP JUMP JUMPDEST DUP1 CALLDATALOAD PUSH1 0x1 PUSH1 0x1 PUSH1 0xA0 SHL SUB DUP2 AND DUP2 EQ PUSH2 0x729 JUMPI PUSH1 0x0 DUP1 REVERT JUMPDEST SWAP2 SWAP1 POP JUMP JUMPDEST PUSH1 0x0 PUSH1 0x20 DUP3 DUP5 SUB SLT ISZERO PUSH2 0x740 JUMPI PUSH1 0x0 DUP1 REVERT JUMPDEST PUSH2 0x70B DUP3 PUSH2 0x712 JUMP JUMPDEST DUP1 CALLDATALOAD PUSH1 0xFF DUP2 AND DUP2 EQ PUSH2 0x729 JUMPI PUSH1 0x0 DUP1 REVERT JUMPDEST PUSH4 0x4E487B71 PUSH1 0xE0 SHL PUSH1 0x0 MSTORE PUSH1 0x41 PUSH1 0x4 MSTORE PUSH1 0x24 PUSH1 0x0 REVERT JUMPDEST PUSH1 0x40 MLOAD PUSH1 0x1F DUP3 ADD PUSH1 0x1F NOT AND DUP2 ADD PUSH8 0xFFFFFFFFFFFFFFFF DUP2 GT DUP3 DUP3 LT OR ISZERO PUSH2 0x799 JUMPI PUSH2 0x799 PUSH2 0x75A JUMP JUMPDEST PUSH1 0x40 MSTORE SWAP2 SWAP1 POP JUMP JUMPDEST PUSH1 0x0 DUP1 PUSH1 0x0 PUSH1 0x60 DUP5 DUP7 SUB SLT ISZERO PUSH2 0x7B6 JUMPI PUSH1 0x0 DUP1 REVERT JUMPDEST PUSH2 0x7BF DUP5 PUSH2 0x712 JUMP JUMPDEST SWAP3 POP PUSH1 0x20 PUSH2 0x7CE DUP2 DUP7 ADD PUSH2 0x749 JUMP JUMPDEST SWAP3 POP PUSH1 0x40 DUP6 ADD CALLDATALOAD PUSH8 0xFFFFFFFFFFFFFFFF DUP1 DUP3 GT ISZERO PUSH2 0x7EB JUMPI PUSH1 0x0 DUP1 REVERT JUMPDEST DUP2 DUP8 ADD SWAP2 POP DUP8 PUSH1 0x1F DUP4 ADD SLT PUSH2 0x7FF JUMPI PUSH1 0x0 DUP1 REVERT JUMPDEST DUP2 CALLDATALOAD DUP2 DUP2 GT ISZERO PUSH2 0x811 JUMPI PUSH2 0x811 PUSH2 0x75A JUMP JUMPDEST PUSH2 0x823 PUSH1 0x1F DUP3 ADD PUSH1 0x1F NOT AND DUP6 ADD PUSH2 0x770 JUMP JUMPDEST SWAP2 POP DUP1 DUP3 MSTORE DUP9 DUP5 DUP3 DUP6 ADD ADD GT ISZERO PUSH2 0x839 JUMPI PUSH1 0x0 DUP1 REVERT JUMPDEST DUP1 DUP5 DUP5 ADD DUP6 DUP5 ADD CALLDATACOPY PUSH1 0x0 DUP5 DUP3 DUP5 ADD ADD MSTORE POP DUP1 SWAP4 POP POP POP POP SWAP3 POP SWAP3 POP SWAP3 JUMP JUMPDEST PUSH1 0x20 DUP1 DUP3 MSTORE DUP3 MLOAD DUP3 DUP3 ADD DUP2 SWAP1 MSTORE PUSH1 0x0 SWAP2 SWAP1 PUSH1 0x40 SWAP1 DUP2 DUP6 ADD SWAP1 DUP7 DUP5 ADD DUP6 JUMPDEST DUP3 DUP2 LT ISZERO PUSH2 0x8AC JUMPI DUP2 MLOAD DUP1 MLOAD PUSH1 0xFF AND DUP6 MSTORE DUP7 DUP2 ADD MLOAD DUP8 DUP7 ADD MSTORE DUP6 ADD MLOAD PUSH4 0xFFFFFFFF AND DUP6 DUP6 ADD MSTORE PUSH1 0x60 SWAP1 SWAP4 ADD SWAP3 SWAP1 DUP6 ADD SWAP1 PUSH1 0x1 ADD PUSH2 0x874 JUMP JUMPDEST POP SWAP2 SWAP8 SWAP7 POP POP POP POP POP POP POP JUMP JUMPDEST PUSH1 0x0 PUSH8 0xFFFFFFFFFFFFFFFF DUP3 GT ISZERO PUSH2 0x8D3 JUMPI PUSH2 0x8D3 PUSH2 0x75A JUMP JUMPDEST POP PUSH1 0x5 SHL PUSH1 0x20 ADD SWAP1 JUMP JUMPDEST PUSH1 0x0 DUP3 PUSH1 0x1F DUP4 ADD SLT PUSH2 0x8EE JUMPI PUSH1 0x0 DUP1 REVERT JUMPDEST DUP2 CALLDATALOAD PUSH1 0x20 PUSH2 0x903 PUSH2 0x8FE DUP4 PUSH2 0x8B9 JUMP JUMPDEST PUSH2 0x770 JUMP JUMPDEST DUP3 DUP2 MSTORE PUSH1 0x5 SWAP3 SWAP1 SWAP3 SHL DUP5 ADD DUP2 ADD SWAP2 DUP2 DUP2 ADD SWAP1 DUP7 DUP5 GT ISZERO PUSH2 0x922 JUMPI PUSH1 0x0 DUP1 REVERT JUMPDEST DUP3 DUP7 ADD JUMPDEST DUP5 DUP2 LT ISZERO PUSH2 0x93D JUMPI DUP1 CALLDATALOAD DUP4 MSTORE SWAP2 DUP4 ADD SWAP2 DUP4 ADD PUSH2 0x926 JUMP JUMPDEST POP SWAP7 SWAP6 POP POP POP POP POP POP JUMP JUMPDEST PUSH1 0x0 DUP1 PUSH1 0x0 PUSH1 0x60 DUP5 DUP7 SUB SLT ISZERO PUSH2 0x95D JUMPI PUSH1 0x0 DUP1 REVERT JUMPDEST DUP4 CALLDATALOAD PUSH8 0xFFFFFFFFFFFFFFFF DUP1 DUP3 GT ISZERO PUSH2 0x975 JUMPI PUSH1 0x0 DUP1 REVERT JUMPDEST DUP2 DUP7 ADD SWAP2 POP DUP7 PUSH1 0x1F DUP4 ADD SLT PUSH2 0x989 JUMPI PUSH1 0x0 DUP1 REVERT JUMPDEST DUP2 CALLDATALOAD PUSH1 0x20 PUSH2 0x999 PUSH2 0x8FE DUP4 PUSH2 0x8B9 JUMP JUMPDEST DUP3 DUP2 MSTORE PUSH1 0x5 SWAP3 SWAP1 SWAP3 SHL DUP5 ADD DUP2 ADD SWAP2 DUP2 DUP2 ADD SWAP1 DUP11 DUP5 GT ISZERO PUSH2 0x9B8 JUMPI PUSH1 0x0 DUP1 REVERT JUMPDEST SWAP5 DUP3 ADD SWAP5 JUMPDEST DUP4 DUP7 LT ISZERO PUSH2 0x9DD JUMPI PUSH2 0x9CE DUP7 PUSH2 0x749 JUMP JUMPDEST DUP3 MSTORE SWAP5 DUP3 ADD SWAP5 SWAP1 DUP3 ADD SWAP1 PUSH2 0x9BD JUMP JUMPDEST SWAP8 POP POP DUP8 ADD CALLDATALOAD SWAP3 POP POP DUP1 DUP3 GT ISZERO PUSH2 0x9F3 JUMPI PUSH1 0x0 DUP1 REVERT JUMPDEST POP PUSH2 0xA00 DUP7 DUP3 DUP8 ADD PUSH2 0x8DD JUMP JUMPDEST SWAP3 POP POP PUSH2 0xA0F PUSH1 0x40 DUP6 ADD PUSH2 0x712 JUMP JUMPDEST SWAP1 POP SWAP3 POP SWAP3 POP SWAP3 JUMP JUMPDEST PUSH1 0x0 JUMPDEST DUP4 DUP2 LT ISZERO PUSH2 0xA33 JUMPI DUP2 DUP2 ADD MLOAD DUP4 DUP3 ADD MSTORE PUSH1 0x20 ADD PUSH2 0xA1B JUMP JUMPDEST POP POP PUSH1 0x0 SWAP2 ADD MSTORE JUMP JUMPDEST PUSH1 0x0 DUP3 MLOAD PUSH2 0xA4E DUP2 DUP5 PUSH1 0x20 DUP8 ADD PUSH2 0xA18 JUMP JUMPDEST SWAP2 SWAP1 SWAP2 ADD SWAP3 SWAP2 POP POP JUMP JUMPDEST PUSH1 0x0 PUSH1 0x20 DUP3 DUP5 SUB SLT ISZERO PUSH2 0xA6A JUMPI PUSH1 0x0 DUP1 REVERT JUMPDEST POP MLOAD SWAP2 SWAP1 POP JUMP JUMPDEST PUSH4 0xFFFFFFFF DUP6 AND DUP2 MSTORE PUSH1 0x1 DUP1 PUSH1 0xA0 SHL SUB DUP5 AND PUSH1 0x20 DUP3 ADD MSTORE PUSH1 0xFF DUP4 AND PUSH1 0x40 DUP3 ADD MSTORE PUSH1 0x80 PUSH1 0x60 DUP3 ADD MSTORE PUSH1 0x0 DUP3 MLOAD DUP1 PUSH1 0x80 DUP5 ADD MSTORE PUSH2 0xAB3 DUP2 PUSH1 0xA0 DUP6 ADD PUSH1 0x20 DUP8 ADD PUSH2 0xA18 JUMP JUMPDEST PUSH1 0x1F ADD PUSH1 0x1F NOT AND SWAP2 SWAP1 SWAP2 ADD PUSH1 0xA0 ADD SWAP6 SWAP5 POP POP POP POP POP JUMP JUMPDEST PUSH4 0x4E487B71 PUSH1 0xE0 SHL PUSH1 0x0 MSTORE PUSH1 0x11 PUSH1 0x4 MSTORE PUSH1 0x24 PUSH1 0x0 REVERT JUMPDEST DUP1 DUP3 ADD DUP1 DUP3 GT ISZERO PUSH2 0xAF3 JUMPI PUSH2 0xAF3 PUSH2 0xACA JUMP JUMPDEST SWAP3 SWAP2 POP POP JUMP JUMPDEST PUSH4 0xFFFFFFFF DUP2 DUP2 AND DUP4 DUP3 AND ADD SWAP1 DUP1 DUP3 GT ISZERO PUSH2 0xB16 JUMPI PUSH2 0xB16 PUSH2 0xACA JUMP JUMPDEST POP SWAP3 SWAP2 POP POP JUMP JUMPDEST PUSH4 0x4E487B71 PUSH1 0xE0 SHL PUSH1 0x0 MSTORE PUSH1 0x12 PUSH1 0x4 MSTORE PUSH1 0x24 PUSH1 0x0 REVERT JUMPDEST PUSH1 0x0 DUP3 PUSH2 0xB42 JUMPI PUSH2 0xB42 PUSH2 0xB1D JUMP JUMPDEST POP DIV SWAP1 JUMP JUMPDEST PUSH1 0x0 DUP3 PUSH2 0xB56 JUMPI PUSH2 0xB56 PUSH2 0xB1D JUMP JUMPDEST POP MOD SWAP1 JUMP JUMPDEST DUP1 DUP3 MUL DUP2 ISZERO DUP3 DUP3 DIV DUP5 EQ OR PUSH2 0xAF3 JUMPI PUSH2 0xAF3 PUSH2 0xACA JUMP JUMPDEST PUSH4 0x4E487B71 PUSH1 0xE0 SHL PUSH1 0x0 MSTORE PUSH1 0x32 PUSH1 0x4 MSTORE PUSH1 0x24 PUSH1 0x0 REVERT JUMPDEST PUSH1 0x0 PUSH1 0x1 DUP3 ADD PUSH2 0xB9A JUMPI PUSH2 0xB9A PUSH2 0xACA JUMP JUMPDEST POP PUSH1 0x1 ADD SWAP1 JUMP INVALID LOG2 PUSH5 0x6970667358 0x22 SLT KECCAK256 SWAP10 ADDRESS 0xCC SHL SWAP8 SWAP15 0xE3 GASPRICE GT PUSH20 0x95DCC932AC31F63D64537FAB7AEE285F6923927F COINBASE 0xE2 PUSH5 0x736F6C6343 STOP ADDMOD GT STOP CALLER ",
  "sha1": "3c783a13738d309eb604faaedec1bc01d381ad97",
  "source": "// SPDX-License-Identifier: MIT\n\npragma solidity >=0.6.0 <0.9.0;\n\ncontract Reputation {\n    address public owner;\n\n    struct BlockchainReview {\n        uint8 value;\n        bytes32 hash;\n        uint32 id;\n    }\n\n    event ReviewReveivedEvent(\n        uint256 id,\n        address targetEntity,\n        uint8 value,\n        string text\n    );\n    mapping(address => BlockchainReview[]) entityReviews;\n    mapping(address => uint256) entityValueSum;\n    mapping(address => mapping(address => bool)) alreadyInsertedReviews;\n    uint32 reviewCount = 0;\n\n    constructor() {\n        owner = msg.sender;\n    }\n\n    function getReputationCount(address _targetEntity)\n        public\n        view\n        returns (uint256)\n    {\n        return entityReviews[_targetEntity].length;\n    }\n\n    function storeReview(\n        address _targetEntity,\n        uint8 _value,\n        string memory _text\n    ) public {\n        require(\n            _value >= 1 && _value <= 5,\n            \"The value should be between 1 and 5\"\n        );\n        require(\n            _targetEntity != msg.sender,\n            \"You cannot insert reviews for yourself!\"\n        );\n        require(\n            alreadyInsertedReviews[msg.sender][_targetEntity] == false,\n            \"You already inserted a review for the entity!\"\n        );\n        bytes32 hash = sha256(abi.encodePacked(_text));\n        entityReviews[_targetEntity].push(\n            BlockchainReview(_value, hash, reviewCount)\n        );\n        emit ReviewReveivedEvent(reviewCount, _targetEntity, _value, _text);\n        entityValueSum[_targetEntity] += _value;\n        alreadyInsertedReviews[msg.sender][_targetEntity] = true;\n        reviewCount += 1;\n    }\n\n    function retrieveEntityReviews(address _targetEntity)\n        public\n        view\n        returns (BlockchainReview[] memory)\n    {\n        return entityReviews[_targetEntity];\n    }\n\n    function checkEntityReviews(\n        uint8[] memory _assertedScores,\n        bytes32[] memory _assertedHashes,\n        address _targetEntity\n    ) public view returns (bool) {\n        for (uint256 i = 0; i < getReputationCount(_targetEntity); i++) {\n            if (_assertedHashes[i] != entityReviews[_targetEntity][i].hash)\n                return false;\n            if (_assertedScores[i] != entityReviews[_targetEntity][i].value)\n                return false;\n        }\n        return true;\n    }\n\n    function getAverageScore(address _targetEntity)\n        public\n        view\n        returns (uint256, uint256)\n    {\n        uint256 integerDivision = entityValueSum[_targetEntity] /\n            getReputationCount(_targetEntity);\n        uint256 modulo = entityValueSum[_targetEntity] %\n            getReputationCount(_targetEntity);\n        return (\n            integerDivision,\n            (modulo * 10) / getReputationCount(_targetEntity)\n        );\n    }\n}\n",
  "sourcePath": "contracts/Reputation.sol",
  "type": "contract"
}